:020000000828CE
:0A0006008316851485158601080095
:10001000032083128601851C2C2806160630CB008F
:100020001330CC00AD30CD00CD0B1428CC0B1428F0
:10003000CB0B14280000000006120630CB00133052
:10004000CC00AD30CD00CD0B2328CC0B2328CB0B1F
:100050002328000000006128851D61280614023055
:10006000CA007830CB006730CC00E730CD00CD0B34
:100070003728CC0B3728CB0B3728CA0B3728000082
:100080000000061006163330CB00BB30CC00DF304A
:10009000CD00CD0B4928CC0B4928CB0B49280000BB
:1000A0000000061286178430CB00E630CC00E23028
:1000B000CD00CD0B5928CC0B5928CB0B592800006B
:0600C00086130B286228E4
:02400E00FA3F77
:00000001FF
